:020000040000FA
:10000000FC3F0020A50100000000000000000000EF
:1000100000000000000000000000000000000000E0
:1000200000000000000000000000000000000000D0
:1000300000000000000000000000000000000000C0
:1000400000000000A9010000000000000000000006
:1000500000000000000000000000000000000000A0
:100060000000000000000000000000000000000090
:100070000000000000000000000000000000000080
:1000800000F002F800F05AF80CA030C80838241824
:100090002D18A246671EAB4654465D46AC4201D1C0
:1000A00000F04CF87E460F3E0FCCB6460126334298
:1000B00000D0FB1AA246AB46334318476C2400001D
:1000C0008C240000103A02D378C878C1FAD85207BD
:1000D00001D330C830C101D504680C6070470000FE
:1000E0000023002400250026103A01D378C1FBD854
:1000F000520700D330C100D50B60704710B5662998
:1001000002D102F08BF910BD642902D100F0F4FB9A
:1001100010BD782902D100F025FC10BD002010BDD3
:100120001FB5C046C04601F00DFC040000200021B0
:1001300002F05AF8E0601FBD10B510BD01F07EFF5F
:100140001146FFF7EDFF00F039F901F096FF03B417
:10015000FFF7F2FF03BC00F019F8000000BF5121C7
:100160000906097AC907C90FF9D15122120610717F
:10017000704710B503460C461846FFF7EFFF10BD59
:1001800001460020704701460020704702A000F0A1
:100190006FFB00BFFEE700000A5445535420444F54
:1001A0004E450A000548004707B500F011F807BDA5
:1001B00003480449044A054B7047000081000000D1
:1001C000D0000020D0080020D0040020D00400205F
:1001D000512109060878FE49FE4A12788854FD49E3
:1001E0000978491CFB4A1170512109060871114612
:1001F0000978632901D00D280CD1F6490978491EE8
:10020000F44A11700021F24AF24B1B78D1540121BB
:10021000F14A1170704708B50021009102E0009981
:10022000491C009100998142F9D308BD5321090668
:10023000087000BF53210906097B0029FAD07047D6
:1002400053210906087A704700B503460A46012083
:10025000532109060871002008710A20FFF7E6FF04
:100260001846FFF7E3FF1046FFF7E0FF0120532198
:100270000906087100BD00B5024601205321090698
:100280000871002008710B20FFF7D0FF1046FFF720
:10029000CDFFFF20FFF7CAFF012053210906087197
:1002A000FFF7CEFF00BDFFB51C4607235B030340ED
:1002B0001E1107239B0203405B1103930723DB01FD
:1002C00003409B1102934023184202D00F231B02CC
:1002D00000E000231D462023184201D0F02300E057
:1002E000002301931023184201D00F2700E00027BC
:1002F0000097039B3343029F3B4329277F06BB8123
:10030000019B2B43009F3B4329277F063B820E2303
:1003100003401F463B0001F042FF09061E0B1E1062
:100320001E141E191E0003230B800123138017E0E7
:1003300003230B800223138012E001230B80138020
:100340000EE001230B800223138009E000230B80C1
:100350000123138004E000230B800123138000BFDE
:1003600000BFC307DB0F2380FFBD10B50446122179
:100370002C20FFF769FF02212D20FFF765FF1120D8
:10038000FFF779FF03021020FFF775FF181800B27E
:1003900020800F20FFF76FFF03020E20FFF76BFF97
:1003A000181800B260801320FFF765FF03021220C7
:1003B000FFF761FF181800B2A08010BD9AB00121AC
:1003C000199100270524002110A801814181818114
:1003D00000200D900E900F9080480A90112080060A
:1003E0000B907F480C9000202921490608751420A5
:1003F000FFF711FF7BA000F03BFA14A8FFF7B5FF51
:10040000DBE105210907088917AB19AA18A9FFF72D
:100410004AFF10A8008C0006800F122210430146EC
:100420002C20FFF711FF1420FFF7F5FE10A8808B9A
:100430000028E5D11120FFF71EFF03021020FFF76F
:100440001AFF191810A8008A411A10A8808C41437D
:1004500009B210A801800F20FFF70DFF03020E2044
:10046000FFF709FF191810A8408A091A10A8808CF4
:10047000414309B210A841801320FFF7FCFE03029C
:100480001220FFF7F8FE191810A8808A091A10A880
:10049000808C414309B210A8818010A90020085E19
:1004A00000F039FD554A564B0391029000F03EFD95
:1004B0000791069010A90820085E00F02CFD514A13
:1004C000514B0391029000F031FD05910490079B80
:1004D000069A00F09CFC0991089000F0C5FC00B25F
:1004E00010A908810220085E00F015FD434A444B24
:1004F0000391029000F01AFD0791069010A90A20BE
:10050000085E00F008FD3F4A3F4B0391029000F067
:100510000DFD05910490079B069A00F078FC099167
:10052000089000F0A1FC00B210A948810420085EE8
:1005300000F0F1FC314A324B0391029000F0F6FCDE
:100540000791069010A90C20085E00F0E4FC2D4AEB
:100550002D4B0391029000F0E9FC05910490079B5C
:10056000069A00F054FC0991089000F07DFC00B25E
:1005700010A9888108228A5E0521C901501800F05F
:1005800019FF0A9010A90A228A5ED01DFF30FA30A6
:1005900000F010FF0B9010AA0C21515E0846FA30B3
:1005A00000F008FF0C90012189070C9800F016FE5E
:1005B000099000F0C3FE84B2204600F003FF0890CB
:1005C0000A9901F027FE1149099001F093FE1FE0FE
:1005D0000C0000200800002009000020000020443A
:1005E0000000A0400D0A57656C636F6D6520746F45
:1005F0002042414C414E43450D0A00009A99999979
:100600009999993F333333333333EF3F0000A0449C
:1006100005D205210902081B00F0CCFE0A902046F5
:1006200000F0D0FE08900A9901F0F4FD0021099035
:1006300001F036FE03D2204600F0BCFE0A902046B0
:1006400000F0C0FE08900B9901F0E4FD8921C90576
:10065000099001F04FFE05D201218902081B00F02C
:10066000A9FE0B90204600F0ADFE08900B9901F01A
:10067000D1FD0021099001F013FE03D2204600F0C5
:1006800099FE0B904D490C9801F034FE01D24B4875
:100690000C904B490C9801F003FE01D248480C9095
:1006A0007D200001874274DB10A80C23C35E0A2260
:1006B000825E0821415E43A0099100F0D9F80F98AD
:1006C00000F060FD099108900E9800F05BFD079125
:1006D00006900D9800F056FD059104900999089830
:1006E00003910290079906980191009042A0059B02
:1006F000049A00F0BDF80C9800F044FD09910890B0
:100700000B9800F03FFD079106900A9800F03AFD23
:100710000591049009990898039102900799069809
:100720000191009040A0059B049A00F0A1F80027D9
:100730001520FFF7A0FD03021420FFF79CFD1818F9
:1007400080B21690002500260EE00A21169800F0CF
:100750003FF9B00081404D19701CC6B20A211698AD
:1007600000F036F980B2169016980028EDD105E019
:10077000B1000F2088404519701CC6B2082EF7DB67
:10078000152080060560294633A000F071F802E0CC
:10079000FFE7781C87B20A9800F0D0FD29214906AE
:1007A00008800B9800F0CAFD2921490688800C9822
:1007B00000F0C4FD29214906088122E60000FA4321
:1007C0000000A040416363656C65726174696F6E7F
:1007D0002C204143432E783A2025642C20094143A4
:1007E000432E793A2025642C20094143432E7A3A3E
:1007F0002025642C200D0A0056656C6F636974799E
:100800002C2056454C2E783A2025662C200956453A
:100810004C2E793A2025662C200956454C2E7A3AE2
:100820002025662C200D0A00506F736974696F6E65
:100830002C20504F532E783A2025662C2009504FFB
:10084000532E793A2025662C2009504F532E7A3AA0
:100850002025662C200D0A0054656D706572617448
:100860007572652C2025780D0A0000007047000085
:100870000FB4054910B503AA029801F009F810BC9D
:1008800008BC04B01847000000000020F8B50E4670
:100890000446002020622046E1688847002829D0CD
:1008A000252802D06268A16820E0E1682046002780
:1008B000884705001ED028464138192802D801274C
:1008C000FF0220353246204627602946FFF716FCF6
:1008D000002808D0012804D0F61DF608F6000836D6
:1008E000D9E7361DD7E762682846A1689047206A95
:1008F000401CCFE7206AF8BDF7B5002575291068C0
:10090000009914A611D0C046C046002802DA404221
:1009100011A608E0009909688A0701D50FA602E030
:10092000490704D50EA6012501E0C046C046009F38
:100930000024243704E000F0BFFF30313955641C37
:100940000028F8D12B4632462146009800F03EFDA3
:10095000FEBD0000000000002D0000002B00000084
:100960002000000070B504460D4621461068C046C0
:10097000C0462188090502D50F4A7A4402E00E4A92
:100980007A440E3223460021243305E00607360F51
:10099000965D5E54491C00090028F7D12078002399
:1009A000000705D5702D03D0002901D01132022394
:1009B000204600F00BFD70BDAE1A000000220309B6
:1009C0008B422CD3030A8B4211D300239C464EE06A
:1009D00003460B433CD4002243088B4231D3030926
:1009E0008B421CD3030A8B4201D394463FE0C309D8
:1009F0008B4201D3CB01C01A524183098B4201D3F0
:100A00008B01C01A524143098B4201D34B01C01ADA
:100A1000524103098B4201D30B01C01A5241C30852
:100A20008B4201D3CB00C01A524183088B4201D3C1
:100A30008B00C01A524143088B4201D34B00C01AAD
:100A40005241411A00D201465241104670475DE0C2
:100A5000CA0F00D04942031000D340425340002245
:100A60009C4603098B422DD3030A8B4212D3FC22EE
:100A7000890112BA030A8B420CD3890192118B426D
:100A800008D3890192118B4204D389013AD0921183
:100A900000E08909C3098B4201D3CB01C01A52413E
:100AA00083098B4201D38B01C01A524143098B4207
:100AB00001D34B01C01A524103098B4201D30B01F0
:100AC000C01A5241C3088B4201D3CB00C01A524115
:100AD00083088B4201D38B00C01A5241D9D24308FC
:100AE0008B4201D34B00C01A5241411A00D2014639
:100AF000634652415B10104601D34042002B00D5A3
:100B00004942704763465B1000D3404201B5002064
:100B1000C046C04602BD704770477047F0B50C46EE
:100B2000871A9C410D46861A9D4103D2C01BA141E4
:100B3000D21963410D0D1F0DC64EEC1BAE435BD0A9
:100B40007F057F0D0026002F50D02D05AC46A94310
:100B5000DD020123ED0A1B051D4320231B1B23D4AB
:100B60001746E740381871412F46E740CC199D40A1
:100B70002818314661410C0D26D161449A4012D5A6
:100B80000023401C594152000DD140084000B24A98
:100B90004B00934207D305204007081801D5511098
:100BA00000E0AE493046F0BD6B00002A00D00122C3
:100BB0009A18203C1F231B1B01D5002302E0E540AF
:100BC000281871410C0DD8D0012424050919C40737
:100BD000CD0740084908E40F28436144002CD6D0D3
:100BE0000024401C61419A40D1D1CEE76A05520DE4
:100BF000D9D1C90FC907D5E7974D4E00002801D0BC
:100C0000012400E0002434195F00002A01D00126ED
:100C100000E00026BE19924FAC420BD8AE4209D874
:100C2000B44205D0BD00AC42BDD010461946F0BD5F
:100C30009942FCD000203946F0BDF0B51FB40C46F7
:100C40000F46811A9F412546861A9D4106D20125ED
:100C5000ED076F40401ABC4152187B41210D1E0D1B
:100C60008D1BAC467B4D8D437ED075056D0D7CD0C4
:100C70000D05AE46AC431B031B0B7A4D52429D4102
:100C8000202366469B1B14D31746F74038180026CE
:100C90000090744160462F460741E41900989D403A
:100CA0002818664116D4714671189A4025D501233B
:100CB00020E093182A466A415200002B00D0521CB3
:100CC000203E1E239B1B002B61DD3541EE172818AB
:100CD0006641E8D5001876415B1C9A4000D3401C61
:100CE0004B05F3181524E34010D3002B52D0714666
:100CF0007118D30FC01802D3491C05B0F0BD0123F1
:100D0000DB079A42F9D140084000F6E7012252057C
:100D1000B21801D1002853D00123CC0ADB02994339
:100D2000891E002A08D1020C03D0020C00041039DD
:100D300002E00246002020390023550B05D11202A3
:100D40000823550B01D152010D23550C01D112017D
:100D50001B1DD50C01D192009B1C150D01D1520019
:100D60005B1C2025EE1A01E02CE022E00546F54050
:100D700015439840CA1AE10769181305C918002AD3
:100D8000BBDA032040070818C10FC9070FE07146FE
:100D90006118B2E7F10740080843711071444A0036
:100DA0000CD001235B059A42A7D2C90FC9070020C6
:100DB000A3E74905490D25D1002001E00028F4D121
:100DC00000219AE7244D6600002801D0012100E0AF
:100DD000002171185F00002A01D0012600E00026E2
:100DE000BE191F4FA9420FD8AE420DD8B14207D04D
:100DF000BD00A94206D01946A802414010467CE732
:100E00009C4201D0214678E70020394675E730B48E
:100E10000C465C4004D50124E407634030BC0CE779
:100E200030BC7BE630B40C465C4004D50124E407BA
:100E3000634030BC72E630BCFFE630B40124E40706
:100E400061400D465D4001D430BC67E6634030BC74
:100E5000F3E60000FF0700000000E0FF0000F07F65
:100E60000000F87F0000F0FF30B50346CA02400DD5
:100E70001043154D154C0A1502D02043002A06DBFD
:100E8000AA1A002A12DDD040FF2A0BDC30BD520521
:100E9000520D01D140004008AA1A07D4D040404268
:100EA000FF2A01DD002030BD0028FCDD4A00002BB8
:100EB00001D0012000E000201018054A9042F1D82E
:100EC000C817C043604030BD1E0400000000008011
:100ED0000000E0FF1F22030C02D10F22000402D009
:100EE000030E03D004E0002001467047083A0002D8
:100EF000030F01D1121F0001830F01D1921E800048
:100F0000002801DB521E4000120551184205C01294
:100F1000411810467047C10FC90700D04042012256
:100F200092071143D6E701218907D3E7F0B5904C2A
:100F30000D092646AC46AE430D465D4087B0002EF7
:100F40007ED01E092746B743FAD067462740ED0FEB
:100F50003D43264075D024012142FBD07419FF2562
:100F6000AD04641B0494CC02D90201231B05C90AF9
:100F70001943E40A1C430F012401030F110F1C4302
:100F80000F430501A10B88032D0916018443A80B0B
:100F900082039543BB0B9A0397433609BC46B20BB9
:100FA0009703BE430746574303972F46774302965E
:100FB000BE46029F4619D71906967E430597039FA2
:100FC000F71B7646BE1B77463F0100970196039FAD
:100FD000B60BF619B646019E009FB604BF1902D3A0
:100FE0007646761CB64676467600002F01D001275D
:100FF0003E4367467D43AE46029F25467D430095AE
:101000006D00AE1975466D00AF1965465D19069EF7
:1010100003956E437546751BAE460D19059E0295E8
:101020006E43009D5843761B75462D1A4A439646DB
:10103000B21A00920195FA0606D07D09012201E05C
:1010400076E072E0154300E07D09020A0006002701
:1010500045197A417646300A360676195041019A8A
:10106000950D9202961945410098820D80028019D3
:101070006A41594363465C43039D029B6B435B1A81
:101080001E1BB30EB601B6187B410A0B0905891960
:101090005A41230A240624184B418B4200D2521C89
:1010A00001204002824203D315210226F64302E0CA
:1010B00014210326F6432020451AAA401F46AF40BC
:1010C000CB402046C8400499134309147118090500
:1010D0005A1804993843C9075140AC4009D001233C
:1010E0009C4006D30023401C5941002C01D14008EC
:1010F0004000204B002A03DB1A4201D08B4312D15F
:10110000012204989206904207DB05204007091847
:1011100019480143C012414004E003204007081869
:10112000C10FC907002007B0F0BD0020E907FAE7AA
:1011300006180C464C4111487642A04114D394182D
:101140001A465A410D48644290410DD3012049008E
:101150004005814208D35900814205D3E90F054A71
:10116000C90700201143DEE700200549DBE7000046
:101170000000FF070000F07FFFFFFF7F0000E0FF9F
:101180000000F87F0121C9050123411842001B0618
:10119000D3185B0E0BD0C1100722D2068918400766
:1011A00052428A1802D5092212078918704709028B
:1011B00008D50146002A03D0C10FC9070020704797
:1011C00010467047420202D00020034970470721B1
:1011D00009050143F4E700000000F87F70B5FF2423
:1011E0002404C609FF25264001352E43C209CB0938
:1011F0000546224023404D40002A6BD0002B69D089
:10120000A24267D0A34265D0002D00DA3246012405
:10121000E4052143204309020002090AD21A000A08
:101220004B0C7F24E31A434C7C44E35C7D24240470
:10123000121914145B00A218884201D3521C00E05A
:10124000400049420C465C4324115C43DB016415B9
:10125000E318040A5C43C502200D0C46444364199C
:10126000250A5D432303EC0C0D466543000300197A
:10127000EB184C42A34201D35B18401CD405201844
:10128000002B07D05B00C91804D3401C002901D1F2
:10129000400840003F2189048A4209D3002A08DC23
:1012A0001106090F04D0032149074018C00FC007D9
:1012B00070BD01224100120689187F225206914218
:1012C000F6D205214907401801D5901070BDFF20C6
:1012D000C00570BD002D00DA3246174EA24207D27B
:1012E000A34205D21802000E17D0E80FC00770BD48
:1012F000FF2443002406A34216D84900A14213D874
:10130000A34201D1A1420FD0A14201D1002101E0AD
:1013100041004908D005084370BD1002000E03D0FB
:10132000FF200243D00570BD304670BD48404140AB
:10133000484053E7281200000000C07F0146000229
:10134000CA1504D00123DB071843002A09DB9E23BA
:101350009A1A01D4D0407047FF22480012069042EA
:1013600001D900207047C817C04370471F22030CE3
:1013700002D10F2200041CD0030E01D1083A000252
:10138000030F01D1121F0001830F01D1921E8000B3
:10139000002801DB521E4000D205511802125118DC
:1013A0001922904004D3491C002801D14908490062
:1013B00008467047C10FC90700D04042012292077A
:1013C0001143D3E701218907D0E77047FFB50446F1
:1013D0000D4681B0243000902168880604D5102283
:1013E000E0699143216000E00120A84201DD471B34
:1013F00000E000270498A1697A191018081AA06162
:101400002078C00602D42046C046C046002608E028
:1014100003986268A168805D9047206A401C761C32
:10142000206204988642F3DB2078C0060AD5204665
:10143000C046C04606E06268A16830209047206A36
:10144000401C206238467F1E0028F4DC07E000982C
:101450006268A168405D9047206A401C206228466F
:101460006D1E0028F3DC2046C046C04620780006EA
:1014700002D5022005B0F0BD0120FBE77047FFB5A3
:101480000C461E468FB003CA089009914F007D0D8F
:1014900000D16D1E002108460020C0460321099A94
:1014A00089050840002A03DA8200801840080840B5
:1014B000800D01280A9002DD0020C0430A900898A0
:1014C00007430DD0EF48F0492818484307141898EF
:1014D00000281DD07542291E1DDD0A9842421BE0DE
:1014E0001898012802D00020302104E00020F243A7
:1014F00005E02154401CB042FBDB30460022189B23
:10150000002121540F998B600A60486013B0F0BD30
:10151000BD1B6D1CDFE70A9A002900DA69420BA89F
:1015200000F0AEFA0BA803AB07C807C308990998E7
:1015300000F00CFB01910146D44802920918002DDD
:1015400000910ADDD14903980A9A4942401803A93B
:101550000390684600F01FFD07E003990A9A0818F7
:1015600003A90390684600F0ECFC0090000402928E
:10157000000C019103D00020C043410800E0104658
:10158000189A002A03D00022009215461EE0751E0C
:1015900005D400F0DBF9303262556D1EF9D5012219
:1015A0000843079602D000227F1C04E020783028F0
:1015B00001D100227F1E002A069788D01EE0112D3F
:1015C00007DA00F0C3F9303262556D1C02460A4357
:1015D000F5D108430FD10021681E05E0235C625C51
:1015E0006354491C2254401E8142F7DBA81B401E55
:1015F0000795069002E0009800280AD0079A1899EB
:101600000020A0540F98079B069A436002608160F7
:101610007CE711260020189059E7D21DF0B50D4641
:101620000446D10893B0C90003C90C900D9100F095
:10163000C5FD02460D98C00F01D02D2007E020689F
:10164000810701D52B2002E04007C00F4001032A8B
:101650000F9001D0072A05DB03462946204600F0FB
:10166000CBF90DE12078800601D5E76900E0062777
:101670002846652D04D0662814D0672D69D12DE049
:101680000020112F009001DB112300E07B1C0CAA2D
:1016900003A910A8FFF7F3FE1199002610987D1CEE
:1016A0000E9142E001203B460CAAC0070B9001209E
:1016B000009003A910A8FFF7E2FE119D129810995F
:1016C000002600280E9501D1781C0D18781B02D435
:1016D0004642761E7D1CE81B00903AE0012F00DA9E
:1016E00001270020112F009001DD112300E03B466F
:1016F0000CAA03A910A8FFF7C2FE11993D46109845
:1017000000260E91217809070BD40E99A94200DA20
:101710000D4603A9012D04DD4A19203AD27F302A53
:1017200006D0B84201DA011D04DA012100910FE070
:101730006D1EEFE7002802DC86192D1A03E0411C1C
:10174000A94200DD0D46801B401C00900120C0070F
:101750000B902078000705D40098A84202DB0020F7
:10176000C043009069460020C8720B98012102AF67
:101770000337C907884225D0022010902B201190F2
:101780000B9800280BDA40420B902D20119006E0B8
:101790000B9800F091F830317F1E0B903970109942
:1017A000481E00291090F3DC0B980028F0D1119806
:1017B0007F1E38702088000501D5452000E0652097
:1017C0007F1E387001A8C01BC01D0B900F98002809
:1017D00000D0012041190098C01709180B9808186B
:1017E000A169081A401EA0612078C00602D42046D4
:1017F000C046C0460F98002805D06268A16890478F
:10180000206A401C20622078C00624D52046C046AD
:10181000C04620E0002E07DB0E98B04204DD03A88E
:101820006268805DA16802E06268A168302090472C
:10183000206A761C401C20620098401E00900AD14D
:1018400000F080F8C06862680168405CA168904759
:10185000206A401C206228466D1E0028DADC07E062
:1018600062683878A1687F1C9047206A401C20621B
:101870000B99481E00290B90F2DC2046C046C0465A
:10188000022043E601FCFFFF104D0000E1DFFFFFF7
:10189000084B70B50D467B4400F09BF80446284683
:1018A000FEF771FC002802D00020C04370BD204626
:1018B00070BD0000D9E8FFFF01468008081A020940
:1018C0001018020A1018020C1018C0088200121812
:1018D0005200891A01E00A39401C0A29FBD27047DC
:1018E00010B5FF231B0644009C421DD84C009C42AF
:1018F0001AD80346124A0B4307D4401A02D3EFF317
:10190000008010BDEFF3008010BD081A06D2EFF37F
:10191000008001219043C907084302E0EFF30080F3
:10192000904380F3008810BD0D231B041A4204D09D
:101930001146002000F05EFB10BD00F073FB10BDEF
:101940000000009000487047900000200B4670B5E2
:10195000024689078008084319469D08141AA941C0
:1019600025090807054308092C194841250A0106DD
:101970000D43010A2C194141200C0D0428430D0C84
:1019800000194D41002140194D41C0086907084325
:10199000E908840F8D002543840024184D41241943
:1019A0006D41121BAB4107E00925ED432C11521983
:1019B00063410024401C61411C460A250026551B3A
:1019C000B441F1D270BD000001694A1C026108787F
:1019D000704700B58FB00291002105910549019330
:1019E00079440391114604906846FEF74FFF0FB00B
:1019F00000BD0000E5FFFFFFF8B51F4604460123C8
:101A00000068DB02032601461840072A05DB002890
:101A100001D017A506E017A504E0002801D016A5FF
:101A200000E016A5102081432160A069C01E002F90
:101A3000A06101D0401EA0612046C046C046002FD4
:101A400009D038466268A1689047206A401C20622D
:101A5000C01C206206E0206AFAE762682878A16864
:101A60006D1C9047761EF8D22046C046C046F8BD91
:101A70004E414E006E616E00494E4600696E660032
:101A8000F7B516468AB0304878446C4603467C3336
:101A9000C06F5A689B680DC42B4B7B446E33083370
:101AA00003AC0DCB0DC43720C001081837211B3003
:101AB000FEF78EFF05460C46803D1B3C02D5644276
:101AC000012000E00020002709900FE0E0070BD084
:101AD0000C201D497843794432464E3941186846F6
:101AE00000F02FFA6B4607C364107F1C002CEDD169
:101AF000154F7F442E3F16E0E80712D02001C01991
:101B000001460EC9069108930792C068F04201D1C0
:101B100098190890324606A903A800F012FA03AB00
:101B200007C36D10641C002DE6D132466946099842
:101B3000002803A802D000F02EFA01E000F001FA1C
:101B40000A9B07C30DB0F0BD080A00000346400021
:101B50000A4610B5400D0BD00121C9070F24A4027D
:101B600000191C0364082143540D2143D20207E0ED
:101B700000210120F2E7D40F490021435200401E0A
:101B80000029F8DADB0FDB07184310BDFFB50D465F
:101B9000144685B04868516800F0E9FA0091019058
:101BA000A868A16800F0E3FA02910390A868616850
:101BB00000F0DDFA029A12188242029201D201204C
:101BC00000E00020019A0B18D2180028019202D0E0
:101BD0008A4202D903E08A4201D2012000E00020BB
:101BE0000099081800906868A16800F0C0FA029A8D
:101BF00012188242029201D2012000E00020019AD4
:101C00000B18D2180028019202D08A4202D903E0B0
:101C10008A4201D2012000E00020009908180090BB
:101C20002868216840004900400849084018EE49EA
:101C3000471814E001994000C90F0843009001982B
:101C400002994000C90F084301900298039940008F
:101C5000C90F08430290039840007F1E039000982C
:101C60000028E7DA0898002801D0E04E00E00026BE
:101C7000B74228DAF71BF806C00E15D0029B2021C8
:101C8000091A039A8B401A430392029A019BC2409D
:101C90008B401A430292019A009BC2408B400099EC
:101CA0001A430192C14000917A110BD06B46032078
:101CB000811A01D5002101E0890059588700401E92
:101CC000D951F5D5374603980299002800D0012054
:101CD000014308980291002808460CD0002800D043
:101CE00001200199019A490508430121D20AC9023C
:101CF000D202019200E001210E9B0122D207012BAA
:101D000002D0002B03D013E0002807D116E0904248
:101D100004D890420CD1019B0B4209D0019B591869
:101D2000019105D10099491C009101D17F1C0092BD
:101D3000002803D0102108460020C04628682168EA
:101D4000019B009A4840C10F0598C90739430EC04E
:101D500009B0F0BDFFB587B0099A08980899536893
:101D60009268406889689646002203931746944615
:101D7000089A12685300099A5B08126852005208C8
:101D80009A1A9B4BD4180A9A002A01D0352200E0F7
:101D9000402206920022012315460492DB07059398
:101DA00024E0002D05D175460346039E4D1BB3412B
:101DB00009D375466646039B491B049D9841059BC4
:101DC0007519AC465F4163463B4308D0059B049EB2
:101DD000DD0776082E435B080496059301E0641E38
:101DE000521EC50FED0749184041521C069B9A42EE
:101DF000D7DB002D04D17546039A6B1A824101D2BC
:101E000003200CE0039A0B466B404240134301D180
:101E1000022004E0014301D0012000E000206146DF
:101E200001910021009702910A99002905D061468D
:101E3000400201436D4B019102E0800700230290B4
:101E40009C423ADA1A1BD006C00E15D0029D202102
:101E5000019C091AC5408C402543029C8C4000D04F
:101E600001242543019C02953D46C4408D403946DE
:101E70002C43C1400194009154111DD06D460221A4
:101E8000002202290CD10320001B07E0002804DBFC
:101E90008600AE59002E00D00122401C0328F5DB3D
:101EA000081B02D588002A5004E0800028581043FF
:101EB0008A00A850491EE3D51C460A9800280298BB
:101EC0000CD0002800D001200199019A490508434F
:101ED0000121D20AC902D202019200E00121109B25
:101EE0000122D207012B02D0002B03D013E00028DF
:101EF00007D116E0904204D890420CD1019B0B42CE
:101F000009D0019B5918019105D10099491C0091F4
:101F100001D1641C0092002803D010210846002043
:101F2000C04608980999019A0068096848400099D4
:101F3000C30F0798DB0723430360826041600BB047
:101F4000F0BD1FB5002300920A46014601A8FFF725
:101F50001DFE01A807C804B010BD1FB501230092E3
:101F60000A46014601A8FFF711FE01A80F2407C881
:101F7000A402C30F4000DB074008001B002900DB60
:101F80000020490000054908CC0A204349051843B0
:101F9000D20A1143DFE71FB5002300920A4601462B
:101FA00001A8FFF7D7FE01A807C8D4E71FB5012392
:101FB00000920A46014601A8FFF7CCFE01A80F24B3
:101FC00007C8A402C30F4000DB074008001B00291C
:101FD00000DB0020490000054908CC0A20434905E0
:101FE0001843D20A1143B6E702C0FFFF013C0000CC
:101FF000FF3F0000CA0210D54A03520F04D0C803A5
:10200000C043012188407047054AEFF30081080171
:102010000009104380F300887047002070470000DB
:102020000000003010B5024800F072F810BD00004A
:102030000000C07F00487047700000207546FFF721
:10204000F9FFAE46050069465346C008C000854604
:1020500018B020B5FEF7ACF860BC00274908B646BA
:102060000026C0C5C0C5C0C5C0C5C0C5C0C5C0C5A7
:10207000C0C5403D49008D4670470446C046C04635
:102080002046FEF764F80000024670B50A43920746
:102090002AD11E4DEE0104C808C9541B9443344094
:1020A00017D0D0B2D9B2401A2106014310D190B254
:1020B00099B2401A210401430AD110021902000A00
:1020C000090A401A2102014302D1100E190E401ACA
:1020D00070BD9A42DFD010BA19BA884201D90120E6
:1020E00070BD0020C04370BD02780B78401C491CB5
:1020F000002A09D09A4207D102780B78401C491C6B
:10210000002A01D09A42EFD0D01A70BD010101011E
:1021100010B50C461107090F092904D00A290AD065
:1021200008290CD104E011460820FFF763FF06E000
:10213000510606D501E0510601D50120C007214610
:1021400010BDD10607D501010909CC084907000EC9
:102150000006044309E0410F20024907000A014339
:10216000200E00061D22D14101430846E7E7F8B5DD
:10217000040C8BB2264682B25E43104658430D0CC7
:10218000370C360400218019164679416E43370C0E
:1021900036048019264679416E438919F8BD30B45A
:1021A0007446641E2578641CAB4204D3635D5B00F7
:1021B000E31830BC18471D46F8E700004900CA0282
:1021C000104300D004204A0D01D001221043054ADB
:1021D000490D914201D102210843012800D1052077
:1021E00070470000FF07000010B500290AD00878EA
:1021F000002807D005487844FFF746FF002801D0A3
:10220000002010BD0248784410BD000052030000B9
:102210004A03000070B501250400ED074C4020D4AE
:10222000441A01D2001B0919C60D4B00F2B2FF2A55
:1022300029D01B0E2CD000020C02D31A2C43DC40F8
:102240002843051910D2280A02D3401C6D0611D06C
:10225000761EF6058019FF2A00DA70BDC00DC00594
:1022600070BD694000F078F801200543C541521C5B
:10227000761CE8E764089C40C90161408900E7D109
:102280000124A043E4E71B0E440200D0034870BDC4
:10229000002AFCD1C00FC00770BD00BF0000C07F86
:1022A00001230200DB050A430DD4DA4203D49A422B
:1022B00007D488427047D84214D4D94212D48842F5
:1022C000704780427047DA4203D59A42F9D581427D
:1022D00070475B004200DA4204D24A00DA4201D27F
:1022E0008142704710B5024AFFF7FAFA10BD00BFED
:1022F0000900160401230A00DB0502430DD4DA426B
:1023000003D49A4207D481427047D94214D4D842A8
:1023100012D48142704789427047DA4203D59A420B
:10232000F9D5884270475B004A00DA4204D2420085
:10233000DA4201D2884270474840414010B5024A13
:102340004840FFF7CDFA10BD0900160470B501250D
:102350000400ED074C4022D4441A02D26C40001B0A
:102360000919C60D4B00F2B2FF2A4BD01B0E50D0FC
:1023700000020C02D31A2C43DC40A843051B05D5F0
:10238000AD0019D36D08761E521E37D0F605280A07
:1023900001D2801970BD70416D0603D070BD6940D7
:1023A000FFF73EFF9C4009026140490001D0401EFA
:1023B00070BD0124A04370BD6D081DD001202B0C01
:1023C00001D12D0410302B0E01D12D0208302B0F1E
:1023D00001D12D01001DAB0F01D1AD00801CEB0F11
:1023E00001D16D00401C6D00361A121A680AF505FD
:1023F0004019012A02DB70BD002070BDC036300AD2
:10240000C00770BD1B0E440201D1FF2B00D1024852
:1024100070BD002AF0D070BD0000C07F03B4024838
:102420007844844603BC6047F7F1FFFF3031323314
:1024300034353637383941424344454640305800F8
:10244000303132333435363738396162636465662A
:10245000403078008182838485868788898B8C8D43
:102460008E8F919293959697999A9C9D9FA0A2A3E7
:10247000A5A7A8AAACAEB0B2B3B5B7B9BCBEC0C22E
:10248000C5C7C9CCCED1D4D7D9DCDFE2E6E9ECF0C0
:10249000F3F7FAFE02400000000000A00000000078
:1024A00005400000000000C8000000000C400000D3
:1024B0000000409C00000000194000000020BCBE4D
:1024C0000000000034400000BFC91B8E0000000463
:1024D000B5400000504BCFD06607E2CF01000000AE
:1024E0006C4100003E8251AADFEEA73401000000DB
:1024F000D9420000DCB5A0E23A301F97FFFFFFFF92
:10250000B4450000FD25A0C8E9A3C14FFFFFFFFFB0
:10251000FF3F00000000008000000000FF3F0000BF
:102520000000008000000000642500000000002082
:102530000C000000C4000000702500000C0000200A
:10254000C4080000E00000001C0000004300000080
:10255000F8FFFFFF0C0000000E0000000F0000005D
:102560002E00000004000051000000510000000097
:04000005000001A551
:00000001FF
